{
  "_format": "hh-sol-artifact-1",
  "contractName": "MusicDApp",
  "sourceName": "contracts/MusicDApp.sol",
  "abi": [
    {
      "anonymous": false,
      "inputs": [
        {
          "indexed": false,
          "internalType": "uint256",
          "name": "songId",
          "type": "uint256"
        },
        {
          "indexed": false,
          "internalType": "uint256",
          "name": "likes",
          "type": "uint256"
        }
      ],
      "name": "SongLiked",
      "type": "event"
    },
    {
      "anonymous": false,
      "inputs": [
        {
          "indexed": false,
          "internalType": "string",
          "name": "title",
          "type": "string"
        },
        {
          "indexed": false,
          "internalType": "string",
          "name": "ipfsHash",
          "type": "string"
        },
        {
          "indexed": false,
          "internalType": "address",
          "name": "owner",
          "type": "address"
        }
      ],
      "name": "SongUploaded",
      "type": "event"
    },
    {
      "inputs": [],
      "name": "getAllSongs",
      "outputs": [
        {
          "components": [
            {
              "internalType": "string",
              "name": "title",
              "type": "string"
            },
            {
              "internalType": "string",
              "name": "caption",
              "type": "string"
            },
            {
              "internalType": "string",
              "name": "ipfsHash",
              "type": "string"
            },
            {
              "internalType": "address",
              "name": "owner",
              "type": "address"
            },
            {
              "internalType": "uint256",
              "name": "likes",
              "type": "uint256"
            }
          ],
          "internalType": "struct MusicDApp.Song[]",
          "name": "",
          "type": "tuple[]"
        }
      ],
      "stateMutability": "view",
      "type": "function"
    },
    {
      "inputs": [
        {
          "internalType": "uint256",
          "name": "_songId",
          "type": "uint256"
        }
      ],
      "name": "likeSong",
      "outputs": [],
      "stateMutability": "nonpayable",
      "type": "function"
    },
    {
      "inputs": [
        {
          "internalType": "uint256",
          "name": "",
          "type": "uint256"
        }
      ],
      "name": "songs",
      "outputs": [
        {
          "internalType": "string",
          "name": "title",
          "type": "string"
        },
        {
          "internalType": "string",
          "name": "caption",
          "type": "string"
        },
        {
          "internalType": "string",
          "name": "ipfsHash",
          "type": "string"
        },
        {
          "internalType": "address",
          "name": "owner",
          "type": "address"
        },
        {
          "internalType": "uint256",
          "name": "likes",
          "type": "uint256"
        }
      ],
      "stateMutability": "view",
      "type": "function"
    },
    {
      "inputs": [
        {
          "internalType": "string",
          "name": "_title",
          "type": "string"
        },
        {
          "internalType": "string",
          "name": "_caption",
          "type": "string"
        },
        {
          "internalType": "string",
          "name": "_ipfsHash",
          "type": "string"
        }
      ],
      "name": "uploadSong",
      "outputs": [],
      "stateMutability": "nonpayable",
      "type": "function"
    }
  ],
  "bytecode": "0x608060405234801561001057600080fd5b50611652806100206000396000f3fe608060405234801561001057600080fd5b506004361061004c5760003560e01c8063231f9f5e1461005157806329ef68621461006d578063304cff301461008b5780633c279b4e146100bf575b600080fd5b61006b60048036038101906100669190610b3e565b6100db565b005b610075610387565b6040516100829190610e04565b60405180910390f35b6100a560048036038101906100a09190610e52565b6105fc565b6040516100b6959493929190610ee7565b60405180910390f35b6100d960048036038101906100d49190610e52565b6107fa565b005b600083511161011f576040517f08c379a000000000000000000000000000000000000000000000000000000000815260040161011690610f9b565b60405180910390fd5b6000825111610163576040517f08c379a000000000000000000000000000000000000000000000000000000000815260040161015a90611007565b60405180910390fd5b60008151116101a7576040517f08c379a000000000000000000000000000000000000000000000000000000000815260040161019e90611073565b60405180910390fd5b6001816040516101b791906110cf565b908152602001604051809103902060009054906101000a900460ff1615610213576040517f08c379a000000000000000000000000000000000000000000000000000000000815260040161020a90611132565b60405180910390fd5b60006040518060a001604052808581526020018481526020018381526020013373ffffffffffffffffffffffffffffffffffffffff168152602001600081525090806001815401808255809150506001900390600052602060002090600502016000909190919091506000820151816000019081610291919061135e565b5060208201518160010190816102a7919061135e565b5060408201518160020190816102bd919061135e565b5060608201518160030160006101000a81548173ffffffffffffffffffffffffffffffffffffffff021916908373ffffffffffffffffffffffffffffffffffffffff1602179055506080820151816004015550506001808260405161032291906110cf565b908152602001604051809103902060006101000a81548160ff0219169083151502179055507fa51238d2df1fa5379f875eea6d2ff1b7e44139026a72490545391ebd7649b1f183823360405161037a93929190611430565b60405180910390a1505050565b60606000805480602002602001604051908101604052809291908181526020016000905b828210156105f357838290600052602060002090600502016040518060a00160405290816000820180546103de90611181565b80601f016020809104026020016040519081016040528092919081815260200182805461040a90611181565b80156104575780601f1061042c57610100808354040283529160200191610457565b820191906000526020600020905b81548152906001019060200180831161043a57829003601f168201915b5050505050815260200160018201805461047090611181565b80601f016020809104026020016040519081016040528092919081815260200182805461049c90611181565b80156104e95780601f106104be576101008083540402835291602001916104e9565b820191906000526020600020905b8154815290600101906020018083116104cc57829003601f168201915b5050505050815260200160028201805461050290611181565b80601f016020809104026020016040519081016040528092919081815260200182805461052e90611181565b801561057b5780601f106105505761010080835404028352916020019161057b565b820191906000526020600020905b81548152906001019060200180831161055e57829003601f168201915b505050505081526020016003820160009054906101000a900473ffffffffffffffffffffffffffffffffffffffff1673ffffffffffffffffffffffffffffffffffffffff1673ffffffffffffffffffffffffffffffffffffffff168152602001600482015481525050815260200190600101906103ab565b50505050905090565b6000818154811061060c57600080fd5b906000526020600020906005020160009150905080600001805461062f90611181565b80601f016020809104026020016040519081016040528092919081815260200182805461065b90611181565b80156106a85780601f1061067d576101008083540402835291602001916106a8565b820191906000526020600020905b81548152906001019060200180831161068b57829003601f168201915b5050505050908060010180546106bd90611181565b80601f01602080910402602001604051908101604052809291908181526020018280546106e990611181565b80156107365780601f1061070b57610100808354040283529160200191610736565b820191906000526020600020905b81548152906001019060200180831161071957829003601f168201915b50505050509080600201805461074b90611181565b80601f016020809104026020016040519081016040528092919081815260200182805461077790611181565b80156107c45780601f10610799576101008083540402835291602001916107c4565b820191906000526020600020905b8154815290600101906020018083116107a757829003601f168201915b5050505050908060030160009054906101000a900473ffffffffffffffffffffffffffffffffffffffff16908060040154905085565b6000805490508110610841576040517f08c379a0000000000000000000000000000000000000000000000000000000008152600401610838906114c1565b60405180910390fd5b600260003373ffffffffffffffffffffffffffffffffffffffff1673ffffffffffffffffffffffffffffffffffffffff168152602001908152602001600020600082815260200190815260200160002060009054906101000a900460ff16156108df576040517f08c379a00000000000000000000000000000000000000000000000000000000081526004016108d69061152d565b60405180910390fd5b600081815481106108f3576108f261154d565b5b90600052602060002090600502016004016000815480929190610915906115ab565b91905055506001600260003373ffffffffffffffffffffffffffffffffffffffff1673ffffffffffffffffffffffffffffffffffffffff168152602001908152602001600020600083815260200190815260200160002060006101000a81548160ff0219169083151502179055507f341a86e2f3922036f4a067512bcf2dad706f23f938db041ba87769c9094da3b681600083815481106109b9576109b861154d565b5b9060005260206000209060050201600401546040516109d99291906115f3565b60405180910390a150565b6000604051905090565b600080fd5b600080fd5b600080fd5b600080fd5b6000601f19601f8301169050919050565b7f4e487b7100000000000000000000000000000000000000000000000000000000600052604160045260246000fd5b610a4b82610a02565b810181811067ffffffffffffffff82111715610a6a57610a69610a13565b5b80604052505050565b6000610a7d6109e4565b9050610a898282610a42565b919050565b600067ffffffffffffffff821115610aa957610aa8610a13565b5b610ab282610a02565b9050602081019050919050565b82818337600083830152505050565b6000610ae1610adc84610a8e565b610a73565b905082815260208101848484011115610afd57610afc6109fd565b5b610b08848285610abf565b509392505050565b600082601f830112610b2557610b246109f8565b5b8135610b35848260208601610ace565b91505092915050565b600080600060608486031215610b5757610b566109ee565b5b600084013567ffffffffffffffff811115610b7557610b746109f3565b5b610b8186828701610b10565b935050602084013567ffffffffffffffff811115610ba257610ba16109f3565b5b610bae86828701610b10565b925050604084013567ffffffffffffffff811115610bcf57610bce6109f3565b5b610bdb86828701610b10565b9150509250925092565b600081519050919050565b600082825260208201905092915050565b6000819050602082019050919050565b600081519050919050565b600082825260208201905092915050565b60005b83811015610c4b578082015181840152602081019050610c30565b60008484015250505050565b6000610c6282610c11565b610c6c8185610c1c565b9350610c7c818560208601610c2d565b610c8581610a02565b840191505092915050565b600073ffffffffffffffffffffffffffffffffffffffff82169050919050565b6000610cbb82610c90565b9050919050565b610ccb81610cb0565b82525050565b6000819050919050565b610ce481610cd1565b82525050565b600060a0830160008301518482036000860152610d078282610c57565b91505060208301518482036020860152610d218282610c57565b91505060408301518482036040860152610d3b8282610c57565b9150506060830151610d506060860182610cc2565b506080830151610d636080860182610cdb565b508091505092915050565b6000610d7a8383610cea565b905092915050565b6000602082019050919050565b6000610d9a82610be5565b610da48185610bf0565b935083602082028501610db685610c01565b8060005b85811015610df25784840389528151610dd38582610d6e565b9450610dde83610d82565b925060208a01995050600181019050610dba565b50829750879550505050505092915050565b60006020820190508181036000830152610e1e8184610d8f565b905092915050565b610e2f81610cd1565b8114610e3a57600080fd5b50565b600081359050610e4c81610e26565b92915050565b600060208284031215610e6857610e676109ee565b5b6000610e7684828501610e3d565b91505092915050565b600082825260208201905092915050565b6000610e9b82610c11565b610ea58185610e7f565b9350610eb5818560208601610c2d565b610ebe81610a02565b840191505092915050565b610ed281610cb0565b82525050565b610ee181610cd1565b82525050565b600060a0820190508181036000830152610f018188610e90565b90508181036020830152610f158187610e90565b90508181036040830152610f298186610e90565b9050610f386060830185610ec9565b610f456080830184610ed8565b9695505050505050565b7f5469746c65206973207265717569726564000000000000000000000000000000600082015250565b6000610f85601183610e7f565b9150610f9082610f4f565b602082019050919050565b60006020820190508181036000830152610fb481610f78565b9050919050565b7f43617074696f6e20697320726571756972656400000000000000000000000000600082015250565b6000610ff1601383610e7f565b9150610ffc82610fbb565b602082019050919050565b6000602082019050818103600083015261102081610fe4565b9050919050565b7f4950465320686173682069732072657175697265640000000000000000000000600082015250565b600061105d601583610e7f565b915061106882611027565b602082019050919050565b6000602082019050818103600083015261108c81611050565b9050919050565b600081905092915050565b60006110a982610c11565b6110b38185611093565b93506110c3818560208601610c2d565b80840191505092915050565b60006110db828461109e565b915081905092915050565b7f536f6e6720616c72656164792075706c6f616465640000000000000000000000600082015250565b600061111c601583610e7f565b9150611127826110e6565b602082019050919050565b6000602082019050818103600083015261114b8161110f565b9050919050565b7f4e487b7100000000000000000000000000000000000000000000000000000000600052602260045260246000fd5b6000600282049050600182168061119957607f821691505b6020821081036111ac576111ab611152565b5b50919050565b60008190508160005260206000209050919050565b60006020601f8301049050919050565b600082821b905092915050565b6000600883026112147fffffffffffffffffffffffffffffffffffffffffffffffffffffffffffffffff826111d7565b61121e86836111d7565b95508019841693508086168417925050509392505050565b6000819050919050565b600061125b61125661125184610cd1565b611236565b610cd1565b9050919050565b6000819050919050565b61127583611240565b61128961128182611262565b8484546111e4565b825550505050565b600090565b61129e611291565b6112a981848461126c565b505050565b5b818110156112cd576112c2600082611296565b6001810190506112af565b5050565b601f821115611312576112e3816111b2565b6112ec846111c7565b810160208510156112fb578190505b61130f611307856111c7565b8301826112ae565b50505b505050565b600082821c905092915050565b600061133560001984600802611317565b1980831691505092915050565b600061134e8383611324565b9150826002028217905092915050565b61136782610c11565b67ffffffffffffffff8111156113805761137f610a13565b5b61138a8254611181565b6113958282856112d1565b600060209050601f8311600181146113c857600084156113b6578287015190505b6113c08582611342565b865550611428565b601f1984166113d6866111b2565b60005b828110156113fe578489015182556001820191506020850194506020810190506113d9565b8683101561141b5784890151611417601f891682611324565b8355505b6001600288020188555050505b505050505050565b6000606082019050818103600083015261144a8186610e90565b9050818103602083015261145e8185610e90565b905061146d6040830184610ec9565b949350505050565b7f496e76616c696420736f6e672049440000000000000000000000000000000000600082015250565b60006114ab600f83610e7f565b91506114b682611475565b602082019050919050565b600060208201905081810360008301526114da8161149e565b9050919050565b7f416c7265616479206c696b656400000000000000000000000000000000000000600082015250565b6000611517600d83610e7f565b9150611522826114e1565b602082019050919050565b600060208201905081810360008301526115468161150a565b9050919050565b7f4e487b7100000000000000000000000000000000000000000000000000000000600052603260045260246000fd5b7f4e487b7100000000000000000000000000000000000000000000000000000000600052601160045260246000fd5b60006115b682610cd1565b91507fffffffffffffffffffffffffffffffffffffffffffffffffffffffffffffffff82036115e8576115e761157c565b5b600182019050919050565b60006040820190506116086000830185610ed8565b6116156020830184610ed8565b939250505056fea26469706673582212204729989c7a597e18132170a760202c595a4683123508da23ca6613ff0180fb4764736f6c63430008130033",
  "linkReferences": {},
  "deployedLinkReferences": {}
}